{
  "_format": "hh-sol-artifact-1",
  "contractName": "FarmController",
  "sourceName": "contracts/staking/FarmController.sol",
  "abi": [
    {
      "anonymous": false,
      "inputs": [
        {
          "indexed": true,
          "internalType": "address",
          "name": "previousOwner",
          "type": "address"
        },
        {
          "indexed": true,
          "internalType": "address",
          "name": "newOwner",
          "type": "address"
        }
      ],
      "name": "OwnershipTransferred",
      "type": "event"
    },
    {
      "inputs": [
        {
          "internalType": "address",
          "name": "_lptoken",
          "type": "address"
        }
      ],
      "name": "addFarm",
      "outputs": [
        {
          "internalType": "address",
          "name": "farm",
          "type": "address"
        }
      ],
      "stateMutability": "nonpayable",
      "type": "function"
    },
    {
      "inputs": [
        {
          "internalType": "uint256",
          "name": "",
          "type": "uint256"
        }
      ],
      "name": "farms",
      "outputs": [
        {
          "internalType": "contract IRewardDistributionRecipientTokenOnly",
          "name": "",
          "type": "address"
        }
      ],
      "stateMutability": "view",
      "type": "function"
    },
    {
      "inputs": [
        {
          "internalType": "uint256",
          "name": "_index",
          "type": "uint256"
        }
      ],
      "name": "getFarm",
      "outputs": [
        {
          "internalType": "contract IRewardDistributionRecipientTokenOnly",
          "name": "",
          "type": "address"
        }
      ],
      "stateMutability": "view",
      "type": "function"
    },
    {
      "inputs": [],
      "name": "getFarmsCount",
      "outputs": [
        {
          "internalType": "uint256",
          "name": "",
          "type": "uint256"
        }
      ],
      "stateMutability": "view",
      "type": "function"
    },
    {
      "inputs": [
        {
          "internalType": "address",
          "name": "token",
          "type": "address"
        }
      ],
      "name": "initialize",
      "outputs": [],
      "stateMutability": "nonpayable",
      "type": "function"
    },
    {
      "inputs": [
        {
          "internalType": "address",
          "name": "",
          "type": "address"
        }
      ],
      "name": "lpFarm",
      "outputs": [
        {
          "internalType": "address",
          "name": "",
          "type": "address"
        }
      ],
      "stateMutability": "view",
      "type": "function"
    },
    {
      "inputs": [
        {
          "internalType": "uint256",
          "name": "amount",
          "type": "uint256"
        }
      ],
      "name": "notifyRewards",
      "outputs": [],
      "stateMutability": "nonpayable",
      "type": "function"
    },
    {
      "inputs": [
        {
          "internalType": "uint256",
          "name": "amount",
          "type": "uint256"
        },
        {
          "internalType": "uint256",
          "name": "from",
          "type": "uint256"
        },
        {
          "internalType": "uint256",
          "name": "to",
          "type": "uint256"
        }
      ],
      "name": "notifyRewardsPartial",
      "outputs": [],
      "stateMutability": "nonpayable",
      "type": "function"
    },
    {
      "inputs": [],
      "name": "owner",
      "outputs": [
        {
          "internalType": "address",
          "name": "",
          "type": "address"
        }
      ],
      "stateMutability": "view",
      "type": "function"
    },
    {
      "inputs": [
        {
          "internalType": "address",
          "name": "",
          "type": "address"
        }
      ],
      "name": "rate",
      "outputs": [
        {
          "internalType": "uint256",
          "name": "",
          "type": "uint256"
        }
      ],
      "stateMutability": "view",
      "type": "function"
    },
    {
      "inputs": [],
      "name": "renounceOwnership",
      "outputs": [],
      "stateMutability": "nonpayable",
      "type": "function"
    },
    {
      "inputs": [],
      "name": "rewardToken",
      "outputs": [
        {
          "internalType": "contract IERC20",
          "name": "",
          "type": "address"
        }
      ],
      "stateMutability": "view",
      "type": "function"
    },
    {
      "inputs": [
        {
          "internalType": "address",
          "name": "_farm",
          "type": "address"
        },
        {
          "internalType": "uint256",
          "name": "_rate",
          "type": "uint256"
        }
      ],
      "name": "setRateOf",
      "outputs": [],
      "stateMutability": "nonpayable",
      "type": "function"
    },
    {
      "inputs": [
        {
          "internalType": "uint256[]",
          "name": "_rates",
          "type": "uint256[]"
        }
      ],
      "name": "setRates",
      "outputs": [],
      "stateMutability": "nonpayable",
      "type": "function"
    },
    {
      "inputs": [
        {
          "internalType": "address",
          "name": "newOwner",
          "type": "address"
        }
      ],
      "name": "transferOwnership",
      "outputs": [],
      "stateMutability": "nonpayable",
      "type": "function"
    },
    {
      "inputs": [],
      "name": "weightSum",
      "outputs": [
        {
          "internalType": "uint256",
          "name": "",
          "type": "uint256"
        }
      ],
      "stateMutability": "view",
      "type": "function"
    }
  ],
  "bytecode": "0x608060405234801561001057600080fd5b5061397b806100206000396000f3fe608060405234801561001057600080fd5b50600436106101005760003560e01c8063906e914c11610097578063d3512cef11610066578063d3512cef146104ad578063da5d8d1f146104db578063f2fde38b1461051d578063f7c618c11461056157610100565b8063906e914c146102f5578063ab98f4ae14610343578063aff7b07d146103fb578063c4d66de81461046957610100565b8063715018a6116100d3578063715018a6146102415780637da470ea1461024b5780638195c3f8146102a35780638da5cb5b146102c157610100565b8063044f5582146101055780630ba9d8ca146101735780630e1e20b7146101cb57806353fd88bf146101e9575b600080fd5b6101476004803603602081101561011b57600080fd5b81019080803573ffffffffffffffffffffffffffffffffffffffff169060200190929190505050610595565b604051808273ffffffffffffffffffffffffffffffffffffffff16815260200191505060405180910390f35b6101b56004803603602081101561018957600080fd5b81019080803573ffffffffffffffffffffffffffffffffffffffff1690602001909291905050506105c8565b6040518082815260200191505060405180910390f35b6101d36105e0565b6040518082815260200191505060405180910390f35b610215600480360360208110156101ff57600080fd5b81019080803590602001909291905050506105ed565b604051808273ffffffffffffffffffffffffffffffffffffffff16815260200191505060405180910390f35b61024961062e565b005b6102776004803603602081101561026157600080fd5b810190808035906020019092919050505061079e565b604051808273ffffffffffffffffffffffffffffffffffffffff16815260200191505060405180910390f35b6102ab6107dd565b6040518082815260200191505060405180910390f35b6102c96107e3565b604051808273ffffffffffffffffffffffffffffffffffffffff16815260200191505060405180910390f35b6103416004803603604081101561030b57600080fd5b81019080803573ffffffffffffffffffffffffffffffffffffffff1690602001909291908035906020019092919050505061080d565b005b6103f96004803603602081101561035957600080fd5b810190808035906020019064010000000081111561037657600080fd5b82018360208201111561038857600080fd5b803590602001918460208302840111640100000000831117156103aa57600080fd5b919080806020026020016040519081016040528093929190818152602001838360200280828437600081840152601f19601f820116905080830192505050505050509192919290505050610963565b005b61043d6004803603602081101561041157600080fd5b81019080803573ffffffffffffffffffffffffffffffffffffffff169060200190929190505050610af0565b604051808273ffffffffffffffffffffffffffffffffffffffff16815260200191505060405180910390f35b6104ab6004803603602081101561047f57600080fd5b81019080803573ffffffffffffffffffffffffffffffffffffffff169060200190929190505050610f90565b005b6104d9600480360360208110156104c357600080fd5b8101908080359060200190929190505050610fdc565b005b61051b600480360360608110156104f157600080fd5b810190808035906020019092919080359060200190929190803590602001909291905050506112a6565b005b61055f6004803603602081101561053357600080fd5b81019080803573ffffffffffffffffffffffffffffffffffffffff169060200190929190505050611556565b005b61056961174b565b604051808273ffffffffffffffffffffffffffffffffffffffff16815260200191505060405180910390f35b60666020528060005260406000206000915054906101000a900473ffffffffffffffffffffffffffffffffffffffff1681565b60676020528060005260406000206000915090505481565b6000606580549050905090565b6000606582815481106105fc57fe5b9060005260206000200160009054906101000a900473ffffffffffffffffffffffffffffffffffffffff169050919050565b610636611771565b73ffffffffffffffffffffffffffffffffffffffff166106546107e3565b73ffffffffffffffffffffffffffffffffffffffff16146106dd576040517f08c379a00000000000000000000000000000000000000000000000000000000081526004018080602001828103825260208152602001807f4f776e61626c653a2063616c6c6572206973206e6f7420746865206f776e657281525060200191505060405180910390fd5b600073ffffffffffffffffffffffffffffffffffffffff16603360009054906101000a900473ffffffffffffffffffffffffffffffffffffffff1673ffffffffffffffffffffffffffffffffffffffff167f8be0079c531659141344cd1fd0a4f28419497f9722a3daafe3b4186f6b6457e060405160405180910390a36000603360006101000a81548173ffffffffffffffffffffffffffffffffffffffff021916908373ffffffffffffffffffffffffffffffffffffffff160217905550565b606581815481106107ae57600080fd5b906000526020600020016000915054906101000a900473ffffffffffffffffffffffffffffffffffffffff1681565b60685481565b6000603360009054906101000a900473ffffffffffffffffffffffffffffffffffffffff16905090565b610815611771565b73ffffffffffffffffffffffffffffffffffffffff166108336107e3565b73ffffffffffffffffffffffffffffffffffffffff16146108bc576040517f08c379a00000000000000000000000000000000000000000000000000000000081526004018080602001828103825260208152602001807f4f776e61626c653a2063616c6c6572206973206e6f7420746865206f776e657281525060200191505060405180910390fd5b606760008373ffffffffffffffffffffffffffffffffffffffff1673ffffffffffffffffffffffffffffffffffffffff168152602001908152602001600020546068600082825403925050819055508060686000828254019250508190555080606760008473ffffffffffffffffffffffffffffffffffffffff1673ffffffffffffffffffffffffffffffffffffffff168152602001908152602001600020819055505050565b61096b611771565b73ffffffffffffffffffffffffffffffffffffffff166109896107e3565b73ffffffffffffffffffffffffffffffffffffffff1614610a12576040517f08c379a00000000000000000000000000000000000000000000000000000000081526004018080602001828103825260208152602001807f4f776e61626c653a2063616c6c6572206973206e6f7420746865206f776e657281525060200191505060405180910390fd5b606580549050815114610a2457600080fd5b6000805b8251811015610ae457828181518110610a3d57fe5b602002602001015182019150828181518110610a5557fe5b60200260200101516067600060658481548110610a6e57fe5b9060005260206000200160009054906101000a900473ffffffffffffffffffffffffffffffffffffffff1673ffffffffffffffffffffffffffffffffffffffff1673ffffffffffffffffffffffffffffffffffffffff168152602001908152602001600020819055508080600101915050610a28565b50806068819055505050565b6000610afa611771565b73ffffffffffffffffffffffffffffffffffffffff16610b186107e3565b73ffffffffffffffffffffffffffffffffffffffff1614610ba1576040517f08c379a00000000000000000000000000000000000000000000000000000000081526004018080602001828103825260208152602001807f4f776e61626c653a2063616c6c6572206973206e6f7420746865206f776e657281525060200191505060405180910390fd5b600073ffffffffffffffffffffffffffffffffffffffff16606660008473ffffffffffffffffffffffffffffffffffffffff1673ffffffffffffffffffffffffffffffffffffffff16815260200190815260200160002060009054906101000a900473ffffffffffffffffffffffffffffffffffffffff1673ffffffffffffffffffffffffffffffffffffffff1614610ca2576040517f08c379a000000000000000000000000000000000000000000000000000000000815260040180806020018281038252600a8152602001807f6661726d2065786973740000000000000000000000000000000000000000000081525060200191505060405180910390fd5b606060405180602001610cb490611c5f565b6020820181038252601f19601f820116604052509050600083604051602001808273ffffffffffffffffffffffffffffffffffffffff1660601b8152601401915050604051602081830303815290604052805190602001209050808251602084016000f592508273ffffffffffffffffffffffffffffffffffffffff1663485cc95585306040518363ffffffff1660e01b8152600401808373ffffffffffffffffffffffffffffffffffffffff1681526020018273ffffffffffffffffffffffffffffffffffffffff16815260200192505050600060405180830381600087803b158015610da157600080fd5b505af1158015610db5573d6000803e3d6000fd5b505050506065839080600181540180825580915050600190039060005260206000200160009091909190916101000a81548173ffffffffffffffffffffffffffffffffffffffff021916908373ffffffffffffffffffffffffffffffffffffffff160217905550606960009054906101000a900473ffffffffffffffffffffffffffffffffffffffff1673ffffffffffffffffffffffffffffffffffffffff1663095ea7b3847fffffffffffffffffffffffffffffffffffffffffffffffffffffffffffffffff6040518363ffffffff1660e01b8152600401808373ffffffffffffffffffffffffffffffffffffffff16815260200182815260200192505050602060405180830381600087803b158015610ecf57600080fd5b505af1158015610ee3573d6000803e3d6000fd5b505050506040513d6020811015610ef957600080fd5b81019080805190602001909291905050505082606660008673ffffffffffffffffffffffffffffffffffffffff1673ffffffffffffffffffffffffffffffffffffffff16815260200190815260200160002060006101000a81548173ffffffffffffffffffffffffffffffffffffffff021916908373ffffffffffffffffffffffffffffffffffffffff1602179055505050919050565b610f98611779565b80606960006101000a81548173ffffffffffffffffffffffffffffffffffffffff021916908373ffffffffffffffffffffffffffffffffffffffff16021790555050565b610fe4611771565b73ffffffffffffffffffffffffffffffffffffffff166110026107e3565b73ffffffffffffffffffffffffffffffffffffffff161461108b576040517f08c379a00000000000000000000000000000000000000000000000000000000081526004018080602001828103825260208152602001807f4f776e61626c653a2063616c6c6572206973206e6f7420746865206f776e657281525060200191505060405180910390fd5b606960009054906101000a900473ffffffffffffffffffffffffffffffffffffffff1673ffffffffffffffffffffffffffffffffffffffff166323b872dd3330846040518463ffffffff1660e01b8152600401808473ffffffffffffffffffffffffffffffffffffffff1681526020018373ffffffffffffffffffffffffffffffffffffffff1681526020018281526020019350505050602060405180830381600087803b15801561113c57600080fd5b505af1158015611150573d6000803e3d6000fd5b505050506040513d602081101561116657600080fd5b81019080805190602001909291905050505060005b6065805490508110156112a25760006065828154811061119757fe5b9060005260206000200160009054906101000a900473ffffffffffffffffffffffffffffffffffffffff1690508073ffffffffffffffffffffffffffffffffffffffff16633c6b16ab611246606854611238606760008773ffffffffffffffffffffffffffffffffffffffff1673ffffffffffffffffffffffffffffffffffffffff168152602001908152602001600020548861188790919063ffffffff16565b61190d90919063ffffffff16565b6040518263ffffffff1660e01b815260040180828152602001915050600060405180830381600087803b15801561127c57600080fd5b505af1158015611290573d6000803e3d6000fd5b5050505050808060010191505061117b565b5050565b6112ae611771565b73ffffffffffffffffffffffffffffffffffffffff166112cc6107e3565b73ffffffffffffffffffffffffffffffffffffffff1614611355576040517f08c379a00000000000000000000000000000000000000000000000000000000081526004018080602001828103825260208152602001807f4f776e61626c653a2063616c6c6572206973206e6f7420746865206f776e657281525060200191505060405180910390fd5b8082106113ca576040517f08c379a000000000000000000000000000000000000000000000000000000000815260040180806020018281038252601e8152602001807f66726f6d2073686f756c6420626520736d616c6c6572207468616e20746f000081525060200191505060405180910390fd5b606580549050811115611428576040517f08c379a000000000000000000000000000000000000000000000000000000000815260040180806020018281038252602d815260200180613919602d913960400191505060405180910390fd5b60008290505b818110156115505760006065828154811061144557fe5b9060005260206000200160009054906101000a900473ffffffffffffffffffffffffffffffffffffffff1690508073ffffffffffffffffffffffffffffffffffffffff16633c6b16ab6114f46068546114e6606760008773ffffffffffffffffffffffffffffffffffffffff1673ffffffffffffffffffffffffffffffffffffffff168152602001908152602001600020548a61188790919063ffffffff16565b61190d90919063ffffffff16565b6040518263ffffffff1660e01b815260040180828152602001915050600060405180830381600087803b15801561152a57600080fd5b505af115801561153e573d6000803e3d6000fd5b5050505050808060010191505061142e565b50505050565b61155e611771565b73ffffffffffffffffffffffffffffffffffffffff1661157c6107e3565b73ffffffffffffffffffffffffffffffffffffffff1614611605576040517f08c379a00000000000000000000000000000000000000000000000000000000081526004018080602001828103825260208152602001807f4f776e61626c653a2063616c6c6572206973206e6f7420746865206f776e657281525060200191505060405180910390fd5b600073ffffffffffffffffffffffffffffffffffffffff168173ffffffffffffffffffffffffffffffffffffffff16141561168b576040517f08c379a00000000000000000000000000000000000000000000000000000000081526004018080602001828103825260268152602001806138a46026913960400191505060405180910390fd5b8073ffffffffffffffffffffffffffffffffffffffff16603360009054906101000a900473ffffffffffffffffffffffffffffffffffffffff1673ffffffffffffffffffffffffffffffffffffffff167f8be0079c531659141344cd1fd0a4f28419497f9722a3daafe3b4186f6b6457e060405160405180910390a380603360006101000a81548173ffffffffffffffffffffffffffffffffffffffff021916908373ffffffffffffffffffffffffffffffffffffffff16021790555050565b606960009054906101000a900473ffffffffffffffffffffffffffffffffffffffff1681565b600033905090565b600060019054906101000a900460ff16806117985750611797611996565b5b806117ae575060008054906101000a900460ff16155b611803576040517f08c379a000000000000000000000000000000000000000000000000000000000815260040180806020018281038252602e8152602001806138ca602e913960400191505060405180910390fd5b60008060019054906101000a900460ff161590508015611853576001600060016101000a81548160ff02191690831515021790555060016000806101000a81548160ff0219169083151502179055505b61185b6119a7565b611863611aa5565b80156118845760008060016101000a81548160ff0219169083151502179055505b50565b60008083141561189a5760009050611907565b60008284029050828482816118ab57fe5b0414611902576040517f08c379a00000000000000000000000000000000000000000000000000000000081526004018080602001828103825260218152602001806138f86021913960400191505060405180910390fd5b809150505b92915050565b6000808211611984576040517f08c379a000000000000000000000000000000000000000000000000000000000815260040180806020018281038252601a8152602001807f536166654d6174683a206469766973696f6e206279207a65726f00000000000081525060200191505060405180910390fd5b81838161198d57fe5b04905092915050565b60006119a130611c4c565b15905090565b600060019054906101000a900460ff16806119c657506119c5611996565b5b806119dc575060008054906101000a900460ff16155b611a31576040517f08c379a000000000000000000000000000000000000000000000000000000000815260040180806020018281038252602e8152602001806138ca602e913960400191505060405180910390fd5b60008060019054906101000a900460ff161590508015611a81576001600060016101000a81548160ff02191690831515021790555060016000806101000a81548160ff0219169083151502179055505b8015611aa25760008060016101000a81548160ff0219169083151502179055505b50565b600060019054906101000a900460ff1680611ac45750611ac3611996565b5b80611ada575060008054906101000a900460ff16155b611b2f576040517f08c379a000000000000000000000000000000000000000000000000000000000815260040180806020018281038252602e8152602001806138ca602e913960400191505060405180910390fd5b60008060019054906101000a900460ff161590508015611b7f576001600060016101000a81548160ff02191690831515021790555060016000806101000a81548160ff0219169083151502179055505b6000611b89611771565b905080603360006101000a81548173ffffffffffffffffffffffffffffffffffffffff021916908373ffffffffffffffffffffffffffffffffffffffff1602179055508073ffffffffffffffffffffffffffffffffffffffff16600073ffffffffffffffffffffffffffffffffffffffff167f8be0079c531659141344cd1fd0a4f28419497f9722a3daafe3b4186f6b6457e060405160405180910390a3508015611c495760008060016101000a81548160ff0219169083151502179055505b50565b600080823b905060008111915050919050565b611c3780611c6d8339019056fe608060405234801561001057600080fd5b50611c17806100206000396000f3fe608060405234801561001057600080fd5b50600436106101365760003560e01c80637b0a47ee116100b8578063cd3daf9d1161007c578063cd3daf9d1461045d578063df136d651461047b578063e9fad8ee14610499578063ebe2b12b146104a3578063f77c4791146104c1578063f7c618c1146104f557610136565b80637b0a47ee1461037d57806380faa57d1461039b5780638b876347146103b9578063a694fc3a14610411578063c8f33c911461043f57610136565b80633c6b16ab116100ff5780633c6b16ab146102555780633d18b91214610283578063485cc9551461028d57806351ed6a30146102f157806370a082311461032557610136565b80628cc2621461013b5780630700037d1461019357806318160ddd146101eb5780631be05289146102095780632e1a7d4d14610227575b600080fd5b61017d6004803603602081101561015157600080fd5b81019080803573ffffffffffffffffffffffffffffffffffffffff169060200190929190505050610529565b6040518082815260200191505060405180910390f35b6101d5600480360360208110156101a957600080fd5b81019080803573ffffffffffffffffffffffffffffffffffffffff169060200190929190505050610610565b6040518082815260200191505060405180910390f35b6101f3610628565b6040518082815260200191505060405180910390f35b610211610632565b6040518082815260200191505060405180910390f35b6102536004803603602081101561023d57600080fd5b8101908080359060200190929190505050610639565b005b6102816004803603602081101561026b57600080fd5b81019080803590602001909291905050506107ee565b005b61028b610ad0565b005b6102ef600480360360408110156102a357600080fd5b81019080803573ffffffffffffffffffffffffffffffffffffffff169060200190929190803573ffffffffffffffffffffffffffffffffffffffff169060200190929190505050610caf565b005b6102f9610ee9565b604051808273ffffffffffffffffffffffffffffffffffffffff16815260200191505060405180910390f35b6103676004803603602081101561033b57600080fd5b81019080803573ffffffffffffffffffffffffffffffffffffffff169060200190929190505050610f0d565b6040518082815260200191505060405180910390f35b610385610f56565b6040518082815260200191505060405180910390f35b6103a3610f5c565b6040518082815260200191505060405180910390f35b6103fb600480360360208110156103cf57600080fd5b81019080803573ffffffffffffffffffffffffffffffffffffffff169060200190929190505050610f6f565b6040518082815260200191505060405180910390f35b61043d6004803603602081101561042757600080fd5b8101908080359060200190929190505050610f87565b005b61044761113c565b6040518082815260200191505060405180910390f35b610465611142565b6040518082815260200191505060405180910390f35b6104836111da565b6040518082815260200191505060405180910390f35b6104a16111e0565b005b6104ab6111fb565b6040518082815260200191505060405180910390f35b6104c9611201565b604051808273ffffffffffffffffffffffffffffffffffffffff16815260200191505060405180910390f35b6104fd611227565b604051808273ffffffffffffffffffffffffffffffffffffffff16815260200191505060405180910390f35b6000610609600a60008473ffffffffffffffffffffffffffffffffffffffff1673ffffffffffffffffffffffffffffffffffffffff168152602001908152602001600020546105fb670de0b6b3a76400006105ed6105d6600960008973ffffffffffffffffffffffffffffffffffffffff1673ffffffffffffffffffffffffffffffffffffffff168152602001908152602001600020546105c8611142565b61124d90919063ffffffff16565b6105df88610f0d565b6112d090919063ffffffff16565b61135690919063ffffffff16565b6113df90919063ffffffff16565b9050919050565b600a6020528060005260406000206000915090505481565b6000600154905090565b62093a8081565b33610642611142565b600881905550610650610f5c565b600781905550600073ffffffffffffffffffffffffffffffffffffffff168173ffffffffffffffffffffffffffffffffffffffff161461071d5761069381610529565b600a60008373ffffffffffffffffffffffffffffffffffffffff1673ffffffffffffffffffffffffffffffffffffffff16815260200190815260200160002081905550600854600960008373ffffffffffffffffffffffffffffffffffffffff1673ffffffffffffffffffffffffffffffffffffffff168152602001908152602001600020819055505b60008211610793576040517f08c379a00000000000000000000000000000000000000000000000000000000081526004018080602001828103825260118152602001807f43616e6e6f74207769746864726177203000000000000000000000000000000081525060200191505060405180910390fd5b61079c82611467565b3373ffffffffffffffffffffffffffffffffffffffff167f7084f5476618d8e60b11ef0d7d3f06914655adb8793e28ff7f018d4c76d505d5836040518082815260200191505060405180910390a25050565b600360009054906101000a900473ffffffffffffffffffffffffffffffffffffffff1673ffffffffffffffffffffffffffffffffffffffff163373ffffffffffffffffffffffffffffffffffffffff16146108b1576040517f08c379a00000000000000000000000000000000000000000000000000000000081526004018080602001828103825260188152602001807f43616c6c6572206973206e6f7420636f6e74726f6c6c6572000000000000000081525060200191505060405180910390fd5b60006108bb611142565b6008819055506108c9610f5c565b600781905550600073ffffffffffffffffffffffffffffffffffffffff168173ffffffffffffffffffffffffffffffffffffffff16146109965761090c81610529565b600a60008373ffffffffffffffffffffffffffffffffffffffff1673ffffffffffffffffffffffffffffffffffffffff16815260200190815260200160002081905550600854600960008373ffffffffffffffffffffffffffffffffffffffff1673ffffffffffffffffffffffffffffffffffffffff168152602001908152602001600020819055505b6109e5333084600460009054906101000a900473ffffffffffffffffffffffffffffffffffffffff1673ffffffffffffffffffffffffffffffffffffffff16611565909392919063ffffffff16565b6005544210610a0f57610a0462093a808361135690919063ffffffff16565b600681905550610a72565b6000610a264260055461124d90919063ffffffff16565b90506000610a3f600654836112d090919063ffffffff16565b9050610a6962093a80610a5b83876113df90919063ffffffff16565b61135690919063ffffffff16565b60068190555050505b42600781905550610a8f62093a80426113df90919063ffffffff16565b6005819055507fde88a922e0d3b88b24e9623efeb464919c6bf9f66857a65e2bfcf2ce87a9433d826040518082815260200191505060405180910390a15050565b33610ad9611142565b600881905550610ae7610f5c565b600781905550600073ffffffffffffffffffffffffffffffffffffffff168173ffffffffffffffffffffffffffffffffffffffff1614610bb457610b2a81610529565b600a60008373ffffffffffffffffffffffffffffffffffffffff1673ffffffffffffffffffffffffffffffffffffffff16815260200190815260200160002081905550600854600960008373ffffffffffffffffffffffffffffffffffffffff1673ffffffffffffffffffffffffffffffffffffffff168152602001908152602001600020819055505b6000610bbf33610529565b90506000811115610cab576000600a60003373ffffffffffffffffffffffffffffffffffffffff1673ffffffffffffffffffffffffffffffffffffffff16815260200190815260200160002081905550610c5c3382600460009054906101000a900473ffffffffffffffffffffffffffffffffffffffff1673ffffffffffffffffffffffffffffffffffffffff166116269092919063ffffffff16565b3373ffffffffffffffffffffffffffffffffffffffff167fe2403640ba68fed3a2f88b7557551d1993f84b99bb10ff833f0cf8db0c5e0486826040518082815260200191505060405180910390a25b5050565b600073ffffffffffffffffffffffffffffffffffffffff1660008054906101000a900473ffffffffffffffffffffffffffffffffffffffff1673ffffffffffffffffffffffffffffffffffffffff1614610d71576040517f08c379a00000000000000000000000000000000000000000000000000000000081526004018080602001828103825260138152602001807f616c726561647920696e697469616c697a65640000000000000000000000000081525060200191505060405180910390fd5b816000806101000a81548173ffffffffffffffffffffffffffffffffffffffff021916908373ffffffffffffffffffffffffffffffffffffffff16021790555080600360006101000a81548173ffffffffffffffffffffffffffffffffffffffff021916908373ffffffffffffffffffffffffffffffffffffffff160217905550600360009054906101000a900473ffffffffffffffffffffffffffffffffffffffff1673ffffffffffffffffffffffffffffffffffffffff1663f7c618c16040518163ffffffff1660e01b815260040160206040518083038186803b158015610e5a57600080fd5b505afa158015610e6e573d6000803e3d6000fd5b505050506040513d6020811015610e8457600080fd5b8101908080519060200190929190505050600460006101000a81548173ffffffffffffffffffffffffffffffffffffffff021916908373ffffffffffffffffffffffffffffffffffffffff160217905550600060058190555060006006819055505050565b60008054906101000a900473ffffffffffffffffffffffffffffffffffffffff1681565b6000600260008373ffffffffffffffffffffffffffffffffffffffff1673ffffffffffffffffffffffffffffffffffffffff168152602001908152602001600020549050919050565b60065481565b6000610f6a426005546116c8565b905090565b60096020528060005260406000206000915090505481565b33610f90611142565b600881905550610f9e610f5c565b600781905550600073ffffffffffffffffffffffffffffffffffffffff168173ffffffffffffffffffffffffffffffffffffffff161461106b57610fe181610529565b600a60008373ffffffffffffffffffffffffffffffffffffffff1673ffffffffffffffffffffffffffffffffffffffff16815260200190815260200160002081905550600854600960008373ffffffffffffffffffffffffffffffffffffffff1673ffffffffffffffffffffffffffffffffffffffff168152602001908152602001600020819055505b600082116110e1576040517f08c379a000000000000000000000000000000000000000000000000000000000815260040180806020018281038252600e8152602001807f43616e6e6f74207374616b65203000000000000000000000000000000000000081525060200191505060405180910390fd5b6110ea826116e1565b3373ffffffffffffffffffffffffffffffffffffffff167f9e71bc8eea02a63969f509818f2dafb9254532904319f9dbda79b67bd34a5f3d836040518082815260200191505060405180910390a25050565b60075481565b60008061114d610628565b141561115d5760085490506111d7565b6111d46111c361116b610628565b6111b5670de0b6b3a76400006111a760065461119960075461118b610f5c565b61124d90919063ffffffff16565b6112d090919063ffffffff16565b6112d090919063ffffffff16565b61135690919063ffffffff16565b6008546113df90919063ffffffff16565b90505b90565b60085481565b6111f16111ec33610f0d565b610639565b6111f9610ad0565b565b60055481565b600360009054906101000a900473ffffffffffffffffffffffffffffffffffffffff1681565b600460009054906101000a900473ffffffffffffffffffffffffffffffffffffffff1681565b6000828211156112c5576040517f08c379a000000000000000000000000000000000000000000000000000000000815260040180806020018281038252601e8152602001807f536166654d6174683a207375627472616374696f6e206f766572666c6f77000081525060200191505060405180910390fd5b818303905092915050565b6000808314156112e35760009050611350565b60008284029050828482816112f457fe5b041461134b576040517f08c379a0000000000000000000000000000000000000000000000000000000008152600401808060200182810382526021815260200180611b976021913960400191505060405180910390fd5b809150505b92915050565b60008082116113cd576040517f08c379a000000000000000000000000000000000000000000000000000000000815260040180806020018281038252601a8152602001807f536166654d6174683a206469766973696f6e206279207a65726f00000000000081525060200191505060405180910390fd5b8183816113d657fe5b04905092915050565b60008082840190508381101561145d576040517f08c379a000000000000000000000000000000000000000000000000000000000815260040180806020018281038252601b8152602001807f536166654d6174683a206164646974696f6e206f766572666c6f77000000000081525060200191505060405180910390fd5b8091505092915050565b61147c8160015461124d90919063ffffffff16565b6001819055506114d481600260003373ffffffffffffffffffffffffffffffffffffffff1673ffffffffffffffffffffffffffffffffffffffff1681526020019081526020016000205461124d90919063ffffffff16565b600260003373ffffffffffffffffffffffffffffffffffffffff1673ffffffffffffffffffffffffffffffffffffffff16815260200190815260200160002081905550611562338260008054906101000a900473ffffffffffffffffffffffffffffffffffffffff1673ffffffffffffffffffffffffffffffffffffffff166116269092919063ffffffff16565b50565b611620846323b872dd60e01b858585604051602401808473ffffffffffffffffffffffffffffffffffffffff1681526020018373ffffffffffffffffffffffffffffffffffffffff1681526020018281526020019350505050604051602081830303815290604052907bffffffffffffffffffffffffffffffffffffffffffffffffffffffff19166020820180517bffffffffffffffffffffffffffffffffffffffffffffffffffffffff83818316178352505050506117e1565b50505050565b6116c38363a9059cbb60e01b8484604051602401808373ffffffffffffffffffffffffffffffffffffffff16815260200182815260200192505050604051602081830303815290604052907bffffffffffffffffffffffffffffffffffffffffffffffffffffffff19166020820180517bffffffffffffffffffffffffffffffffffffffffffffffffffffffff83818316178352505050506117e1565b505050565b60008183106116d757816116d9565b825b905092915050565b6116f6816001546113df90919063ffffffff16565b60018190555061174e81600260003373ffffffffffffffffffffffffffffffffffffffff1673ffffffffffffffffffffffffffffffffffffffff168152602001908152602001600020546113df90919063ffffffff16565b600260003373ffffffffffffffffffffffffffffffffffffffff1673ffffffffffffffffffffffffffffffffffffffff168152602001908152602001600020819055506117de33308360008054906101000a900473ffffffffffffffffffffffffffffffffffffffff1673ffffffffffffffffffffffffffffffffffffffff16611565909392919063ffffffff16565b50565b6060611843826040518060400160405280602081526020017f5361666545524332303a206c6f772d6c6576656c2063616c6c206661696c65648152508573ffffffffffffffffffffffffffffffffffffffff166118d09092919063ffffffff16565b90506000815111156118cb5780806020019051602081101561186457600080fd5b81019080805190602001909291905050506118ca576040517f08c379a000000000000000000000000000000000000000000000000000000000815260040180806020018281038252602a815260200180611bb8602a913960400191505060405180910390fd5b5b505050565b60606118df84846000856118e8565b90509392505050565b606082471015611943576040517f08c379a0000000000000000000000000000000000000000000000000000000008152600401808060200182810382526026815260200180611b716026913960400191505060405180910390fd5b61194c85611a91565b6119be576040517f08c379a000000000000000000000000000000000000000000000000000000000815260040180806020018281038252601d8152602001807f416464726573733a2063616c6c20746f206e6f6e2d636f6e747261637400000081525060200191505060405180910390fd5b600060608673ffffffffffffffffffffffffffffffffffffffff1685876040518082805190602001908083835b60208310611a0e57805182526020820191506020810190506020830392506119eb565b6001836020036101000a03801982511681845116808217855250505050505090500191505060006040518083038185875af1925050503d8060008114611a70576040519150601f19603f3d011682016040523d82523d6000602084013e611a75565b606091505b5091509150611a85828286611aa4565b92505050949350505050565b600080823b905060008111915050919050565b60608315611ab457829050611b69565b600083511115611ac75782518084602001fd5b816040517f08c379a00000000000000000000000000000000000000000000000000000000081526004018080602001828103825283818151815260200191508051906020019080838360005b83811015611b2e578082015181840152602081019050611b13565b50505050905090810190601f168015611b5b5780820380516001836020036101000a031916815260200191505b509250505060405180910390fd5b939250505056fe416464726573733a20696e73756666696369656e742062616c616e636520666f722063616c6c536166654d6174683a206d756c7469706c69636174696f6e206f766572666c6f775361666545524332303a204552433230206f7065726174696f6e20646964206e6f742073756363656564a2646970667358221220b05b1d1d520723c36778eda4c46a64d00c9a8ddcc25d20954a2f24670863f47464736f6c634300070500334f776e61626c653a206e6577206f776e657220697320746865207a65726f2061646472657373496e697469616c697a61626c653a20636f6e747261637420697320616c726561647920696e697469616c697a6564536166654d6174683a206d756c7469706c69636174696f6e206f766572666c6f77746f2073686f756c6420626520736d616c6c6572206f7220657175616c20746f206661726d732e6c656e677468a264697066735822122072f7f6ded281f0c7057658d918de524cc3e3132ad9bd7203ac50481b9193446f64736f6c63430007050033",
  "linkReferences": {},
  "deployedLinkReferences": {}
}